{
  "address": "0xe7f1725E7734CE288F8367e1Bb143E90bb3F0512",
  "abi": [
    {
      "inputs": [
        {
          "internalType": "address",
          "name": "priceFeed",
          "type": "address"
        }
      ],
      "stateMutability": "nonpayable",
      "type": "constructor"
    },
    {
      "inputs": [],
      "name": "FundMe__NotOwner",
      "type": "error"
    },
    {
      "inputs": [],
      "name": "MINIMUM_USD",
      "outputs": [
        {
          "internalType": "uint256",
          "name": "",
          "type": "uint256"
        }
      ],
      "stateMutability": "view",
      "type": "function"
    },
    {
      "inputs": [],
      "name": "cheaperWithdraw",
      "outputs": [],
      "stateMutability": "nonpayable",
      "type": "function"
    },
    {
      "inputs": [],
      "name": "fund",
      "outputs": [],
      "stateMutability": "payable",
      "type": "function"
    },
    {
      "inputs": [
        {
          "internalType": "address",
          "name": "fundingAddress",
          "type": "address"
        }
      ],
      "name": "getAddressToAmountFunded",
      "outputs": [
        {
          "internalType": "uint256",
          "name": "",
          "type": "uint256"
        }
      ],
      "stateMutability": "view",
      "type": "function"
    },
    {
      "inputs": [
        {
          "internalType": "uint256",
          "name": "index",
          "type": "uint256"
        }
      ],
      "name": "getFunder",
      "outputs": [
        {
          "internalType": "address",
          "name": "",
          "type": "address"
        }
      ],
      "stateMutability": "view",
      "type": "function"
    },
    {
      "inputs": [],
      "name": "getOwner",
      "outputs": [
        {
          "internalType": "address",
          "name": "",
          "type": "address"
        }
      ],
      "stateMutability": "view",
      "type": "function"
    },
    {
      "inputs": [],
      "name": "getPriceFeed",
      "outputs": [
        {
          "internalType": "contract AggregatorV3Interface",
          "name": "",
          "type": "address"
        }
      ],
      "stateMutability": "view",
      "type": "function"
    },
    {
      "inputs": [],
      "name": "getVersion",
      "outputs": [
        {
          "internalType": "uint256",
          "name": "",
          "type": "uint256"
        }
      ],
      "stateMutability": "view",
      "type": "function"
    },
    {
      "inputs": [],
      "name": "i_owner",
      "outputs": [
        {
          "internalType": "address",
          "name": "",
          "type": "address"
        }
      ],
      "stateMutability": "view",
      "type": "function"
    },
    {
      "inputs": [
        {
          "internalType": "address",
          "name": "",
          "type": "address"
        }
      ],
      "name": "s_addressToAmountFunded",
      "outputs": [
        {
          "internalType": "uint256",
          "name": "",
          "type": "uint256"
        }
      ],
      "stateMutability": "view",
      "type": "function"
    },
    {
      "inputs": [
        {
          "internalType": "uint256",
          "name": "",
          "type": "uint256"
        }
      ],
      "name": "s_funders",
      "outputs": [
        {
          "internalType": "address",
          "name": "",
          "type": "address"
        }
      ],
      "stateMutability": "view",
      "type": "function"
    },
    {
      "inputs": [],
      "name": "s_priceFeed",
      "outputs": [
        {
          "internalType": "contract AggregatorV3Interface",
          "name": "",
          "type": "address"
        }
      ],
      "stateMutability": "view",
      "type": "function"
    },
    {
      "inputs": [],
      "name": "withdraw",
      "outputs": [],
      "stateMutability": "nonpayable",
      "type": "function"
    }
  ],
  "transactionHash": "0x883724187f903a560f2c130d06d92ca0fa35af2c1cb1c8ce252e49763dcf5328",
  "args": [
    "0x5FbDB2315678afecb367f032d93F642f64180aa3"
  ],
  "numDeployments": 1,
  "solcInputHash": "520fc0238099c7538ae17d2fca318a8e",
  "bytecode": "0x60a06040523480156200001157600080fd5b506040516200152238038062001522833981810160405281019062000037919062000120565b80600260006101000a81548173ffffffffffffffffffffffffffffffffffffffff021916908373ffffffffffffffffffffffffffffffffffffffff1602179055503373ffffffffffffffffffffffffffffffffffffffff1660808173ffffffffffffffffffffffffffffffffffffffff1660601b815250505062000152565b600080fd5b600073ffffffffffffffffffffffffffffffffffffffff82169050919050565b6000620000e882620000bb565b9050919050565b620000fa81620000db565b81146200010657600080fd5b50565b6000815190506200011a81620000ef565b92915050565b600060208284031215620001395762000138620000b6565b5b6000620001498482850162000109565b91505092915050565b60805160601c61138e6200019460003960008181610425015281816105b80152818161069d0152818161082801528181610a1e0152610afd015261138e6000f3fe6080604052600436106100c25760003560e01c80636b69a5921161007f578063b60d428811610059578063b60d42881461026c578063be2693f014610276578063d7b4750c1461028d578063dba6335f146102ca576100c2565b80636b69a592146101eb578063893d20e8146102165780639e87a5cd14610241576100c2565b80630343fb25146100c75780630d8e6e2c146101045780630ec3b0271461012f5780631bf6132d1461015a5780633ccfd60b1461019757806354861af7146101ae575b600080fd5b3480156100d357600080fd5b506100ee60048036038101906100e99190610d05565b6102f5565b6040516100fb9190610d4b565b60405180910390f35b34801561011057600080fd5b5061011961033e565b6040516101269190610d4b565b60405180910390f35b34801561013b57600080fd5b506101446103e5565b6040516101519190610dc5565b60405180910390f35b34801561016657600080fd5b50610181600480360381019061017c9190610d05565b61040b565b60405161018e9190610d4b565b60405180910390f35b3480156101a357600080fd5b506101ac610423565b005b3480156101ba57600080fd5b506101d560048036038101906101d09190610e0c565b61064d565b6040516101e29190610e48565b60405180910390f35b3480156101f757600080fd5b5061020061068c565b60405161020d9190610d4b565b60405180910390f35b34801561022257600080fd5b5061022b610699565b6040516102389190610e48565b60405180910390f35b34801561024d57600080fd5b506102566106c1565b6040516102639190610dc5565b60405180910390f35b6102746106eb565b005b34801561028257600080fd5b5061028b610826565b005b34801561029957600080fd5b506102b460048036038101906102af9190610e0c565b610ab4565b6040516102c19190610e48565b60405180910390f35b3480156102d657600080fd5b506102df610afb565b6040516102ec9190610e48565b60405180910390f35b6000600160008373ffffffffffffffffffffffffffffffffffffffff1673ffffffffffffffffffffffffffffffffffffffff168152602001908152602001600020549050919050565b6000600260009054906101000a900473ffffffffffffffffffffffffffffffffffffffff1673ffffffffffffffffffffffffffffffffffffffff166354fd4d506040518163ffffffff1660e01b815260040160206040518083038186803b1580156103a857600080fd5b505afa1580156103bc573d6000803e3d6000fd5b505050506040513d601f19601f820116820180604052508101906103e09190610e78565b905090565b600260009054906101000a900473ffffffffffffffffffffffffffffffffffffffff1681565b60016020528060005260406000206000915090505481565b7f000000000000000000000000000000000000000000000000000000000000000073ffffffffffffffffffffffffffffffffffffffff163373ffffffffffffffffffffffffffffffffffffffff16146104a8576040517f579610db00000000000000000000000000000000000000000000000000000000815260040160405180910390fd5b60005b6000805490508110156105535760008082815481106104cd576104cc610ea5565b5b9060005260206000200160009054906101000a900473ffffffffffffffffffffffffffffffffffffffff1690506000600160008373ffffffffffffffffffffffffffffffffffffffff1673ffffffffffffffffffffffffffffffffffffffff1681526020019081526020016000208190555050808061054b90610f03565b9150506104ab565b50600067ffffffffffffffff81111561056f5761056e610f4c565b5b60405190808252806020026020018201604052801561059d5781602001602082028036833780820191505090505b50600090805190602001906105b3929190610bfb565b5060007f000000000000000000000000000000000000000000000000000000000000000073ffffffffffffffffffffffffffffffffffffffff16476040516105fa90610fac565b60006040518083038185875af1925050503d8060008114610637576040519150601f19603f3d011682016040523d82523d6000602084013e61063c565b606091505b505090508061064a57600080fd5b50565b6000818154811061065d57600080fd5b906000526020600020016000915054906101000a900473ffffffffffffffffffffffffffffffffffffffff1681565b6802b5e3af16b188000081565b60007f0000000000000000000000000000000000000000000000000000000000000000905090565b6000600260009054906101000a900473ffffffffffffffffffffffffffffffffffffffff16905090565b6802b5e3af16b188000061072a600260009054906101000a900473ffffffffffffffffffffffffffffffffffffffff1634610b1f90919063ffffffff16565b101561076b576040517f08c379a00000000000000000000000000000000000000000000000000000000081526004016107629061101e565b60405180910390fd5b34600160003373ffffffffffffffffffffffffffffffffffffffff1673ffffffffffffffffffffffffffffffffffffffff16815260200190815260200160002060008282546107ba919061103e565b925050819055506000339080600181540180825580915050600190039060005260206000200160009091909190916101000a81548173ffffffffffffffffffffffffffffffffffffffff021916908373ffffffffffffffffffffffffffffffffffffffff160217905550565b7f000000000000000000000000000000000000000000000000000000000000000073ffffffffffffffffffffffffffffffffffffffff163373ffffffffffffffffffffffffffffffffffffffff16146108ab576040517f579610db00000000000000000000000000000000000000000000000000000000815260040160405180910390fd5b60008080548060200260200160405190810160405280929190818152602001828054801561092e57602002820191906000526020600020905b8160009054906101000a900473ffffffffffffffffffffffffffffffffffffffff1673ffffffffffffffffffffffffffffffffffffffff16815260200190600101908083116108e4575b5050505050905060005b81518110156109b957600082828151811061095657610955610ea5565b5b602002602001015190506000600160008373ffffffffffffffffffffffffffffffffffffffff1673ffffffffffffffffffffffffffffffffffffffff168152602001908152602001600020819055505080806109b190610f03565b915050610938565b50600067ffffffffffffffff8111156109d5576109d4610f4c565b5b604051908082528060200260200182016040528015610a035781602001602082028036833780820191505090505b5060009080519060200190610a19929190610bfb565b5060007f000000000000000000000000000000000000000000000000000000000000000073ffffffffffffffffffffffffffffffffffffffff1647604051610a6090610fac565b60006040518083038185875af1925050503d8060008114610a9d576040519150601f19603f3d011682016040523d82523d6000602084013e610aa2565b606091505b5050905080610ab057600080fd5b5050565b6000808281548110610ac957610ac8610ea5565b5b9060005260206000200160009054906101000a900473ffffffffffffffffffffffffffffffffffffffff169050919050565b7f000000000000000000000000000000000000000000000000000000000000000081565b600080610b2b83610b5b565b90506000670de0b6b3a76400008583610b449190611094565b610b4e919061111d565b9050809250505092915050565b6000808273ffffffffffffffffffffffffffffffffffffffff1663feaf968c6040518163ffffffff1660e01b815260040160a06040518083038186803b158015610ba457600080fd5b505afa158015610bb8573d6000803e3d6000fd5b505050506040513d601f19601f82011682018060405250810190610bdc91906111c6565b5050509150506402540be40081610bf39190611241565b915050919050565b828054828255906000526020600020908101928215610c74579160200282015b82811115610c735782518260006101000a81548173ffffffffffffffffffffffffffffffffffffffff021916908373ffffffffffffffffffffffffffffffffffffffff16021790555091602001919060010190610c1b565b5b509050610c819190610c85565b5090565b5b80821115610c9e576000816000905550600101610c86565b5090565b600080fd5b600073ffffffffffffffffffffffffffffffffffffffff82169050919050565b6000610cd282610ca7565b9050919050565b610ce281610cc7565b8114610ced57600080fd5b50565b600081359050610cff81610cd9565b92915050565b600060208284031215610d1b57610d1a610ca2565b5b6000610d2984828501610cf0565b91505092915050565b6000819050919050565b610d4581610d32565b82525050565b6000602082019050610d606000830184610d3c565b92915050565b6000819050919050565b6000610d8b610d86610d8184610ca7565b610d66565b610ca7565b9050919050565b6000610d9d82610d70565b9050919050565b6000610daf82610d92565b9050919050565b610dbf81610da4565b82525050565b6000602082019050610dda6000830184610db6565b92915050565b610de981610d32565b8114610df457600080fd5b50565b600081359050610e0681610de0565b92915050565b600060208284031215610e2257610e21610ca2565b5b6000610e3084828501610df7565b91505092915050565b610e4281610cc7565b82525050565b6000602082019050610e5d6000830184610e39565b92915050565b600081519050610e7281610de0565b92915050565b600060208284031215610e8e57610e8d610ca2565b5b6000610e9c84828501610e63565b91505092915050565b7f4e487b7100000000000000000000000000000000000000000000000000000000600052603260045260246000fd5b7f4e487b7100000000000000000000000000000000000000000000000000000000600052601160045260246000fd5b6000610f0e82610d32565b91507fffffffffffffffffffffffffffffffffffffffffffffffffffffffffffffffff821415610f4157610f40610ed4565b5b600182019050919050565b7f4e487b7100000000000000000000000000000000000000000000000000000000600052604160045260246000fd5b600081905092915050565b50565b6000610f96600083610f7b565b9150610fa182610f86565b600082019050919050565b6000610fb782610f89565b9150819050919050565b600082825260208201905092915050565b7f596f75206e65656420746f207370656e64206d6f726520455448210000000000600082015250565b6000611008601b83610fc1565b915061101382610fd2565b602082019050919050565b6000602082019050818103600083015261103781610ffb565b9050919050565b600061104982610d32565b915061105483610d32565b9250827fffffffffffffffffffffffffffffffffffffffffffffffffffffffffffffffff0382111561108957611088610ed4565b5b828201905092915050565b600061109f82610d32565b91506110aa83610d32565b9250817fffffffffffffffffffffffffffffffffffffffffffffffffffffffffffffffff04831182151516156110e3576110e2610ed4565b5b828202905092915050565b7f4e487b7100000000000000000000000000000000000000000000000000000000600052601260045260246000fd5b600061112882610d32565b915061113383610d32565b925082611143576111426110ee565b5b828204905092915050565b600069ffffffffffffffffffff82169050919050565b61116d8161114e565b811461117857600080fd5b50565b60008151905061118a81611164565b92915050565b6000819050919050565b6111a381611190565b81146111ae57600080fd5b50565b6000815190506111c08161119a565b92915050565b600080600080600060a086880312156111e2576111e1610ca2565b5b60006111f08882890161117b565b9550506020611201888289016111b1565b945050604061121288828901610e63565b935050606061122388828901610e63565b92505060806112348882890161117b565b9150509295509295909350565b600061124c82611190565b915061125783611190565b9250827f7fffffffffffffffffffffffffffffffffffffffffffffffffffffffffffffff048211600084136000841316161561129657611295610ed4565b5b817f800000000000000000000000000000000000000000000000000000000000000005831260008412600084131616156112d3576112d2610ed4565b5b827f800000000000000000000000000000000000000000000000000000000000000005821260008413600084121616156113105761130f610ed4565b5b827f7fffffffffffffffffffffffffffffffffffffffffffffffffffffffffffffff058212600084126000841216161561134d5761134c610ed4565b5b82820290509291505056fea2646970667358221220e31f8783ee0652b39099361741ff7e11622fa26e86f570e53eda94a6e843b06b64736f6c63430008080033",
  "devdoc": {
    "author": "Patrick Collins",
    "details": "This implements price feeds as our library",
    "kind": "dev",
    "methods": {
      "getAddressToAmountFunded(address)": {
        "params": {
          "fundingAddress": "the address of the funder"
        },
        "returns": {
          "_0": "the amount funded"
        }
      }
    },
    "title": "A sample Funding Contract",
    "version": 1
  },
  "userdoc": {
    "kind": "user",
    "methods": {
      "fund()": {
        "notice": "Funds our contract based on the ETH/USD price"
      },
      "getAddressToAmountFunded(address)": {
        "notice": "Gets the amount that an address has funded"
      }
    },
    "notice": "This contract is for creating a sample funding contract",
    "version": 1
  },
  "storageLayout": {
    "storage": [
      {
        "astId": 67,
        "contract": "contracts/FundMe.sol:FundMe",
        "label": "s_funders",
        "offset": 0,
        "slot": "0",
        "type": "t_array(t_address)dyn_storage"
      },
      {
        "astId": 71,
        "contract": "contracts/FundMe.sol:FundMe",
        "label": "s_addressToAmountFunded",
        "offset": 0,
        "slot": "1",
        "type": "t_mapping(t_address,t_uint256)"
      },
      {
        "astId": 74,
        "contract": "contracts/FundMe.sol:FundMe",
        "label": "s_priceFeed",
        "offset": 0,
        "slot": "2",
        "type": "t_contract(AggregatorV3Interface)45"
      }
    ],
    "types": {
      "t_address": {
        "encoding": "inplace",
        "label": "address",
        "numberOfBytes": "20"
      },
      "t_array(t_address)dyn_storage": {
        "base": "t_address",
        "encoding": "dynamic_array",
        "label": "address[]",
        "numberOfBytes": "32"
      },
      "t_contract(AggregatorV3Interface)45": {
        "encoding": "inplace",
        "label": "contract AggregatorV3Interface",
        "numberOfBytes": "20"
      },
      "t_mapping(t_address,t_uint256)": {
        "encoding": "mapping",
        "key": "t_address",
        "label": "mapping(address => uint256)",
        "numberOfBytes": "32",
        "value": "t_uint256"
      },
      "t_uint256": {
        "encoding": "inplace",
        "label": "uint256",
        "numberOfBytes": "32"
      }
    }
  }
}